:020000040000FA
:100000004E28A301A200FF30A207031CA307031C74
:1000100049280330A100DF300F200328A101E83E6A
:10002000A000A109FC30031C1828A00703181528FC
:10003000A0076400A10F152820181E28A01C222844
:100040000000222808000310A00DA10DFF3E031898
:100050002328200849280310A10CA00CFF3E0318F8
:100060002B2820084928A20001303928A20004309A
:100070003928A80023082102031D40282208200255
:10008000043003180130031902302805031DFF3026
:100090004928831303138312640008008316860122
:1000A00001308700831286010130B800B9010130A8
:1000B000B800B9013808A0003908A100A3018030B8
:1000C0008A0133208A110A12031D76283809BA00E2
:1000D0003909BB003A0886000130A300F4308A01D8
:1000E00002200310B80DB90D8A015A288030B800DB
:1000F000B9013808A0003908A100A30101308A0124
:1001000036208A110A12031D95283809BA003909C8
:10011000BB003A0886000130A300F4308A010220B7
:0E0120000310B90CB80C8A0179288A015728FF
:02400E00753FFC
:00000001FF
