:020000040000FA
:10000000B201CA28A501A400B3172730A3001030FD
:1000100015200330A300E8301520A301643015201B
:10002000A3010A30152024082028A2002508A100D9
:100030002408A000A9202008031DB313B31B080047
:10004000303EA70009110910091083160911091083
:100050000910880183122708B21849283A30A100F4
:10006000FC308D203330A6005C201030A1006830B9
:100070008D205C2064308C205C20383048200C308F
:1000800048200130482006304820B214270849286B
:100090003214A600321C57280910033C031C5C28AC
:1000A0005C200730A100D0308D20031408003214EA
:1000B000FE3C0319C52809140915260888003210CA
:1000C000091132308C2003140800031783168C01A9
:1000D0000C1483120C0803178D0AC528030103179B
:1000E0008C0083168C010C1555308D00AA308D00C4
:1000F0008C148C1879280C1183128D0AC528A30141
:10010000A200FF30A207031CA307031CC52803306D
:10011000A100DF308D208128A101E83EA000A109C7
:10012000FC30031C9628A00703189328A00764003E
:10013000A10F932820189C28A01CA0280000A0280C
:1001400008000310A00DA10DFF3E0318A1282008F0
:10015000C528A501A4011030A600210DA40DA50DF0
:100160002208A4022308031C230FA5020318BF289A
:100170002208A40723080318230FA5070310A00DC6
:10018000A10DA60BAD282008C528831303138312E5
:1001900064000800831607309F00643083128A01D0
:1001A0007F20831607308700860183122030B80035
:1001B0002030BC000130B9002030BA00FE308A0186
:1001C000212001308A0121200310B90D6400390873
:1001D000103C8A110A12031DEF280130B9003908BA
:1001E000860064008A110A12071D2129640039085B
:1001F000013C8A110A12031DFF280130B800640077
:100200003908023C8A110A12031D08290430B8007B
:1002100064003908043C8A110A12031D11290730B1
:10022000B80064003908083C8A110A12031D1A2913
:100230002A30BA0064008A110A12071D21298A0196
:100240001A2964008A110A12871C5029640039088F
:10025000013C8A110A12031D2F290230B8006400E4
:100260003908023C8A110A12031D38290530B800EA
:1002700064003908043C8A110A12031D4129083020
:10028000B80064003908083C8A110A12031D492984
:10029000B80164008A110A12871C50298A01492971
:1002A00064008A110A12071C802964003908013C85
:1002B0008A110A12031D5E290330B8006400390850
:1002C000023C8A110A12031D67290630B800640037
:1002D0003908043C8A110A12031D70290930B8003C
:1002E00064003908083C8A110A12031D7929233059
:1002F000BA0064008A110A12071C80298A01792930
:1003000064003808203C8A110A120319B6296400D7
:1003100009303B028A110A12031898293B08031777
:100320008D00031338088A016F20BB0A2030B80003
:1003300064003B08093C8A110A12031DB6296400B7
:100340003B08003C8A110A120319B629BB033B087B
:1003500003178D0003138A016520BC003C088A0145
:10036000022064308A017F208A019F298A01E428C3
:02400E00753FFC
:00000001FF
