:020000040000FA
:10000000B201762898181812181664008C1E05285C
:100010001A0803147128A700091109100910831682
:10002000091109100910880183122708B218332812
:100030003A30A100FC305D203330A600462010305D
:10004000A10068305D20462064305C2046203830B6
:1000500032200C3032200130322006303220B214EF
:10006000270833283214A600321C41280910033C0B
:10007000031C462846200730A100D0305D20031421
:1000800008003214FE3C03197128091409152608CA
:1000900088003210091132305C2003140800A301DB
:1000A000A200FF30A207031CA307031C7128033022
:1000B000A100DF305D205128A101E83EA000A10988
:1000C000FC30031C6628A00703186328A0076400FF
:1000D000A10F632820186C28A01C7028000070282D
:1000E0000800831303138312640008008316193079
:1000F00099002430980083129030980083160730BE
:100100009F00643083128A014F208A010220B800C8
:1001100064003908003C8A110A12031D9B28FE3036
:100120008A010B2081308A010B2038088A010B20BC
:100130008A110A12BE2864003908013C8A110A1289
:10014000031DAE28FE308A010B2080308A010B206F
:1001500038088A010B208A110A12BE286400390867
:10016000023C8A110A12031DBE28FE308A010B20B0
:1001700082308A010B2038088A010B20B90A8A01D3
:020180008528D0
:02400E00753FFC
:00000001FF
