:020000040000FA
:10000000B201F22898181812181664008C1E0528E0
:100010001A080314ED2864000C1E0B289900031421
:10002000ED28A501A400B3172730A3001030242029
:100030000330A300E8302420A30164302420A3016E
:100040000A30242024082F28A2002508A100240813
:10005000A000D1202008031DB313B31B0800303EBD
:10006000A7000911091009108316091109100910B8
:10007000880183122708B21858283A30A100FC30B2
:10008000B9203330A6006B201030A1006830B920B1
:100090006B206430B8206B20383057200C3057204C
:1000A0000130572006305720B21427085828321440
:1000B000A600321C66280910033C031C6B286B2029
:1000C0000730A100D030B920031408003214FE3CE0
:1000D0000319ED28091409152608880032100911A2
:1000E0003230B82003140800A300360884008417B7
:1000F000340980058413A3080319ED28F030A50006
:1001000022088038A400F030A5030319A5000319C4
:10011000A3030319ED288C289C2003012018340820
:10012000A21F3408A20803190301A40F992880060E
:1001300080289A2800008328210820040319A00A97
:100140008030201AA1062019A106A018A106210DB1
:10015000A00DA10DED28A301A200FF30A207031CF2
:10016000A307031CED280330A100DF30B920AD2820
:10017000A101E83EA000A109FC30031CC228A00791
:100180000318BF28A0076400A10FBF282018C828A3
:10019000A01CCC280000CC2808000404031DFF305C
:1001A000ED28A501A4011030A600210DA40DA50D78
:1001B0002208A4022308031C230FA5020318E72822
:1001C0002208A40723080318230FA5070310A00D76
:1001D000A10DA60BD5282008ED2883130313831245
:1001E00064000800831619309900243098008312A7
:1001F00090309800831607309F00643083128A0184
:10020000AB2083168601FE3083128A0130204030F5
:100210008A0130200E308A0130200E308A013020D1
:1002200004308A01302004308A01302004308A01F1
:10023000302000308A01302000308A013020003028
:100240008A013020FE308A01302048308A01302077
:100250000E308A0130200E308A01302004308A01AD
:1002600030201C308A01302004308A0130200030D8
:100270008A01302000308A01302000308A0130208D
:10028000FE308A01302050308A0130200E308A0141
:1002900030200E308A01302004308A0130201F3097
:1002A0008A01302004308A01302000308A01302059
:1002B00000308A01302000308A013020FE308A016F
:1002C000302058308A0130200E308A0130200E3024
:1002D0008A01302004308A0130201F308A0130200A
:1002E00004308A01302008308A01302010308A0121
:1002F000302000308A013020FE308A01302060300A
:100300008A0130200E308A0130200E308A013020E0
:1003100004308A0130201F308A01302004308A01E5
:1003200030200A308A01302011308A01302000301C
:100330008A013020FE308A01302068308A01302066
:1003400000308A01302004308A01302008308A01D0
:1003500030201F308A01302008308A0130200430DC
:100360008A01302000308A01302000308A0130209C
:10037000FE308A01302070308A01302000308A013E
:10038000302000308A01302004308A0130201F30B4
:100390008A01302004308A0130200A308A0130205E
:1003A00011308A01302000308A013020FE308A016D
:1003B000302078308A01302000308A01302000302F
:1003C0008A01302000308A01302000308A0130203C
:1003D00000308A0130200E308A0130200E308A0130
:1003E000302000308A01302041308A010B206430F7
:1003F0008A010B2061308A010B206D308A010B20AD
:1004000020308A010B2061308A010B2073308A0171
:100410000B206D308A010B2061308A010B20633084
:100420008A010B2061308A010B2020308A010B20C9
:100430006F308A010B2079308A010B2075308A01D8
:100440000B206E308A010B2075308A010B206E3034
:100450008A010B2061308A010B2020308A010B2099
:1004600068308A010B206F308A010B2073308A01BB
:100470000B2067308A010B2065308A010B206C301D
:100480008A010B2064308A010B2069308A010B201D
:100490006E308A010B2069308A010B207A308A0184
:1004A0000B2021308A010B200D308A010B200A30ED
:1004B0008A010B209430C800C2010530C900FE300B
:1004C0008A01302001308A0130204C308A010B2013
:1004D00075308A010B2074308A010B2066308A0146
:1004E0000B2065308A010B206E308A010B202030F2
:1004F0008A010B2035308A010B2020308A010B2025
:1005000068308A010B2061308A010B206E308A012D
:100510000B2065308A010B206C308A010B2069307A
:100520008A010B2020308A010B206B308A010B20BE
:1005300065308A010B206C308A010B2069308A01FA
:100540000B206D308A010B2065308A010B20203092
:100550008A010B2067308A010B2069308A010B2049
:1005600072308A010B2069308A010B206E308A01BB
:100570000B2069308A010B207A308A010B20213050
:100580008A010B203A308A010B200D308A010B20A2
:100590000A308A010B208A010220C3000630B6000F
:1005A0000130B4000A30A2000F308A0174202A30D2
:1005B0008A010B208A010220C4000630B6000130F7
:1005C000B4000A30A2000F308A0174202A308A0158
:1005D0000B208A010220C5000630B6000130B400AD
:1005E0000A30A2000F308A0174202A308A010B20C1
:1005F0008A010220C6000630B6000130B4000A307D
:10060000A2000F308A0174202A308A010B208A014F
:100610000220C7000630B6000130B4000A30A20044
:100620000F308A0174202A308A010B200D308A0194
:100630000B200A308A010B206B308A010B206530B9
:100640008A010B206C308A010B2069308A010B2053
:100650006D308A010B2065308A010B206C308A01D5
:100660000B2065308A010B2072308A010B2020306C
:100670008A010B2067308A010B2069308A010B2028
:1006800072308A010B2069308A010B206C308A019C
:100690000B2064308A010B2069308A010B202C303A
:1006A0008A010B2069308A010B206B308A010B20F4
:1006B00069308A010B206E308A010B2063308A0179
:1006C0000B2069308A010B2020308A010B206F300B
:1006D0008A010B2079308A010B2075308A010B20AA
:1006E0006E308A010B2063308A010B2075308A013D
:1006F0000B2020308A010B2074308A010B206130DE
:100700008A010B2068308A010B206D308A010B2092
:1007100069308A010B206E308A010B2065308A0116
:100720000B2020308A010B2062308A010B206130BF
:100730008A010B2073308A010B206C308A010B2058
:1007400061308A010B2073308A010B2069308A01E5
:100750000B206E308A010B202E308A010B200D30C9
:100760008A010B200A308A010B208A110A12BA2B47
:100770008A015A2A8A010220CA004A084302031D3C
:10078000FF30FF3AB8004A084402031DFF30FF3A29
:10079000BA00380884003A088A01CD20BA00BB00AC
:1007A0004A084502031DFF30FF3ABC003A083B04EB
:1007B00084003C088A01CD20BC00BD004A084602E6
:1007C000031DFF30FF3ABE003C083D0484003E0894
:1007D0008A01CD20BE00BF004A084702031DFF303A
:1007E000FF3AC0003E083F04840040088A01CD2043
:1007F000C000C1006400400841048A110A120319B4
:10080000082D0630B6000130B4001430A2000F30BD
:100810008A01742064004A0843028A110A12031DE7
:100820001A2CFE308A01302080308A0130204308A3
:100830008A01302064004A0844028A110A12031D0A
:100840002A2CFE308A01302081308A013020440871
:100850008A01302064004A0845028A110A12031DE9
:100860003A2CFE308A01302082308A01302045083F
:100870008A01302064004A0846028A110A12031DC8
:100880004A2CFE308A01302083308A01302046080D
:100890008A01302064004A0847028A110A12031DA7
:1008A0005A2CFE308A01302084308A0130204708DB
:1008B0008A013020C20A64004208053C8A110A12EB
:1008C000031D052DFE308A01302001308A013020C1
:1008D000FE308A01302080308A0130204B308A017E
:1008E000302041308A0130205A308A013020413096
:1008F0008A0130204E308A01302044308A01302075
:1009000049308A0130204E308A01302049308A0136
:1009100030205A308A01302021308A0130200630C0
:10092000B6000130B4000A30A2000A308A017420F7
:100930001430A2000A308A0174201E30A2000A304E
:100940008A017420FE308A013020C0308A013020B4
:100950006F308A01302079308A0130206E308A0170
:10096000302061308A0130206D308A0130206130C2
:100970008A0130206B308A01302020308A013020FB
:1009800069308A01302063308A01302069308A0161
:1009900030206E308A01302020308A0130207330C0
:1009A0008A01302070308A01302061308A01302085
:1009B00063308A01302065308A01302079308A0125
:1009C000302065308A01302020308A0130206230AA
:1009D0008A01302061308A01302073308A01302052
:1009E00069308A0130206E308A01302069308A01F6
:1009F00030207A308A0130208A010220203C8A117E
:100A00000A12031DFC2C8A015A2A8A110A129E2DF1
:100A10000630B6000130B4001430A2000F308A0155
:100A200074200A30A2000F308A017420FE308A013F
:100A30003020C0308A0130206B308A013020613094
:100A40008A0130206C308A01302061308A013020E8
:100A50006E308A01302020308A01302068308A01CF
:100A6000302061308A0130206D308A0130206C30B6
:100A70008A01302065308A0130203A308A013020E6
:100A800049088A01112064004908053C8A110A12AC
:100A9000031D532DFE308A01302089308A01302019
:100AA00000308A01302064004908043C8A110A128F
:100AB000031D632DFE308A01302089308A013020E9
:100AC00001308A01302064004908033C8A110A126F
:100AD000031D732DFE308A01302089308A013020B9
:100AE00002308A01302064004908023C8A110A124F
:100AF000031D832DFE308A01302089308A01302089
:100B000003308A01302064004908013C8A110A122E
:100B1000031D932DFE308A01302089308A01302058
:100B200004308A01302064004908003C8A110A120E
:100B3000031D9D2D8A110A12A02DC9038A01BA2B0B
:100B4000FE308A01302001308A01302064004808DC
:100B5000873C8A110A12031D742EFE308A01302050
:100B600087308A01302006308A013020FE308A0129
:100B7000302088308A01302007308A013020FE3052
:100B80008A013020C0308A0130204B308A01302069
:100B900041308A01302059308A01302042308A01A8
:100BA000302045308A01302054308A0130205430C2
:100BB0008A01302049308A0130204E308A013020AD
:100BC00049308A0130205A308A01302021308A0190
:100BD00030200630B6000130B4003230A2000A30B6
:100BE0008A0174202830A2000A308A0174201E3045
:100BF000A2000A308A01742054308A010B2065302B
:100C00008A010B206B308A010B2072308A010B2085
:100C100061308A010B2072308A010B2020308A015A
:100C20000B206F308A010B2079308A010B206E3047
:100C30008A010B2061308A010B206D308A010B2064
:100C400061308A010B206B308A010B2020308A0131
:100C50000B2069308A010B2063308A010B20693038
:100C60008A010B206E308A010B2020308A010B2074
:100C700073308A010B2070308A010B2061308A01A9
:100C80000B2063308A010B2065308A010B207930FC
:100C90008A010B2065308A010B2020308A010B204D
:100CA00062308A010B2061308A010B2073308A0187
:100CB0000B2069308A010B206E308A010B206930CD
:100CC0008A010B207A308A010B200D308A010B201B
:100CD0000A308A010B208A010220203C8A110A1264
:100CE000031D6B2E8A015A2AFE308A01302087307C
:100CF0008A01302004308A013020FE308A01302001
:100D000048088A01302005308A0130200130A300D4
:0C0D10002C308A01AC20C8038A01A02D01
:02400E00753FFC
:00000001FF
